:020000042000DA
:1000000000040120B1090020B10A0020B10A00203B
:10001000B10A0020B10A0020B10A0020B10A002074
:10002000B10A0020B10A0020B10A0020E10A002034
:10003000B10A0020B10A0020B10A0020C10A002044
:10004000B10A0020B10A0020B10A0020B10A002044
:10005000B10A0020B10A0020B10A0020B10A002034
:10006000B10A0020B10A0020B10A0020F11E0020D0
:10007000311F0020711F0020B11F0020F11F002040
:10008000312000207120002051250020B10A0020DD
:10009000B10A0020B10A0020B10A0020B10A0020F4
:1000A00051290020B10A0020B10A0020B10A002025
:1000B000A12B0020C12B0020E12B0020B10A002041
:1000C000B10A0020B10A0020B10A0020B10A0020C4
:1000D000B10A0020B10A0020212E0020B10A002020
:1000E000B10A0020B10A0020B10A0020B10A0020A4
:1000F000B10A0020B10A0020B10A0020B12000207E
:10010000B10A0020B10A002031290020B10A0020E4
:10011000B10A0020B10A0020B10A0020B10A002073
:10012000F12000203121002071210020B121002088
:10013000F1210020B10A0020B10A0020B10A0020FC
:10014000B10A0020B10A0020B10A0020B10A002043
:100150003122002071220020B1220020B10A0020AB
:10016000B10A0020B10A0020B10A0020B10A002023
:10017000B10A0020B10A0020B10A0020B10A002013
:08018000B10A0020B10A0020C1
:1001900000B585B001900023039306E006480A21CC
:1001A00001F046FD039B0A330393039A019B9A4295
:1001B000F4D305B05DF804FB280B0120AFF30080F9
:1001C00008B501F0B5FC00F0C3FD0448044901F096
:1001D00007FD0448044901F003FD08BD280B012078
:1001E000B02E0020380B0120C02E0020AFF300807D
:1001F00082B001900091019B1A68009B5B00012175
:1002000001FA03F31A43019B1A60019B1A68009BD1
:100210005B000133012101FA03F3DB431A40019B28
:100220001A60019B5A680121009B01FA03F3DB432A
:100230001A40019B5A60019B9A68009B5B00012158
:1002400001FA03F3DB431A40009B5B0001330121F9
:1002500001FA03F3DB431A40019B9A60019BDA68C1
:10026000009B5B00012101FA03F3DB431A40009B72
:100270005B000133012101FA03F3DB431A40019BC8
:10028000DA6002B0704700BFAFF30080AFF30080C8
:1002900000B583B0104A6B46106818609188927957
:1002A00099809A7100238DF807300EE09DF8073091
:1002B00002AA134413F8083C08481946FFF798FFB0
:1002C0009DF8073001338DF807309DF80730062B75
:1002D000ECD903B05DF804FB802E00200010024032
:1002E00000B583B001900091164B164A526922F472
:1002F00070425A61134B134A5169019A120392B228
:100300000A435A61009B002B04D00E4B4FF400624D
:100310001A8303E00B4B4FF400625A830A20FFF765
:1003200037FF084B4FF480621A830A20FFF730FF33
:10033000044B4FF480625A830A20FFF729FF03B071
:100340005DF804FB00100240AFF30080AFF30080C3
:1003500008B500200021FFF7C3FF01200021FFF7AF
:10036000BFFF4FF47A70FFF713FF08BDAFF30080B3
:1003700000B585B003900291019200200021FFF7A3
:10038000AFFF039B002B01D001230393029B002BA3
:1003900001D001230293019B002B01D00123019383
:1003A000039B9B0043F00802029B5B001A43019BE6
:1003B000134318460021FFF793FF2820FFF7E8FEBC
:1003C00005B05DF804FB00BFAFF30080AFF3008021
:1003D00000B585B00190009108230393009B002B8A
:1003E00003D0039B43F00403039303980021FFF71A
:1003F00077FF01980021FFF773FF2820FFF7C8FE61
:1004000005B05DF804FB00BFAFF30080AFF30080E0
:1004100000B583B003468DF807309DF807301B09FF
:10042000DBB218460121FFF75BFF9DF80730184645
:100430000121FFF755FF3220FFF7AAFE03B05DF858
:1004400004FB00BFAFF30080AFF30080AFF3008088
:1004500000B585B001900023039309E0019A039B46
:1004600013441B781846FFF7D3FF039B0133039314
:10047000019A039B13441B78002BEFD105B05DF864
:1004800004FB00BFAFF30080AFF30080AFF3008048
:1004900008B5FFF7FDFE322000F0B2FF0320002177
:1004A000FFF71EFF0A2000F0ABFF03200021FFF73B
:1004B00017FF4FF4FA70FFF76BFE03200021FFF7E0
:1004C0000FFF02200021FFF70BFF08200021FFF79C
:1004D00007FF02200021FFF703FF3220FFF758FE3D
:1004E00000200021FFF7FCFE0E200021FFF7F8FEA0
:1004F0003220FFF74DFE00200021FFF7F1FE012022
:100500000021FFF7EDFE052000F07AFF002000211A
:10051000FFF7E6FE06200021FFF7E2FE3220FFF79C
:1005200037FE08200021FFF7DBFE00200021FFF747
:10053000D7FE3220FFF72CFE04200121FFF7D0FE6A
:100540000F200121FFF7CCFE3220FFF721FE04200F
:100550000121FFF7C5FE0B200121FFF7C1FE32206C
:10056000FFF716FE08BD00BFAFF30080AFF30080B9
:1005700008B5204B1F4A526C42F480525A641E4BFD
:100580001D4A128892B242F0030292B21A801A4BAC
:10059000194A128892B222F4006292B21A80164B63
:1005A000154A128892B292B222F0380292B242F008
:1005B000180292B292B21A800F4B0F4A128892B26E
:1005C00042F4407292B21A800C4B08221A830A4BF2
:1005D000094A128892B242F0440292B21A80322042
:1005E000FFF7D6FD2020472100F082F83220FFF7E8
:1005F000CFFD08BD0038024000300140001002402D
:1006000000B585B001900091019B03F03F03019379
:10061000019B0E2B02DC40F2E9335AE0019B1F2BB9
:1006200005DC019B0F2B02DD40F2E93351E0019B19
:10063000262B05DC019B232B02DD40F2E93348E049
:10064000019B2F2B05DC019B2D2B02DD40F2E933B2
:100650003FE0224B08225A83019B43F08003019321
:100660001F4B019A92B29A810220FFF791FD00BFC1
:100670001B4B1B899BB203F00103002BF8D0184BD6
:100680009B899BB2DBB28DF80B30154BFF229A8110
:100690000220FFF77DFD00BF114B1B899BB203F0C9
:1006A0000103002BF8D00E4B9B899BB2DBB28DF877
:1006B0000B300A4B08221A83009B002B03D19DF8B4
:1006C0000B305BB205E00DF10B030393039B1B782A
:1006D0005BB2184605B05DF804FB00BF0010024095
:1006E00000300140AFF30080AFF30080AFF3008033
:1006F00000B583B001900091019B03F03F0301938B
:10070000019B0E2B02DC40F2E9333FE0019B1F2BE3
:1007100005DC019B0F2B02DD40F2E93336E0019B43
:10072000262B05DC019B232B02DD40F2E9332DE073
:10073000019B2F2B05DC019B2D2B02DD40F2E933C1
:1007400024E0144B08225A83134B019A92B29A81E7
:100750000220FFF71DFD00BF0F4B1B899BB203F06A
:100760000103002BF8D00C4B009A92B29A81022020
:10077000FFF70EFD00BF084B1B899BB203F001037E
:10078000002BF8D0034B08221A830123184603B02C
:100790005DF804FB0010024000300140AFF3008020
:1007A00000B589B001900091232307936FF02203D5
:1007B0000693232305936FF022030493019A079B6A
:1007C0009A4202DD079B019305E0019A069B9A423B
:1007D00001DA069B0193009A059B9A4202DD059B74
:1007E000009305E0009A049B9A4201DA049B00936F
:1007F000019A1346DB009A1A079B92FBF3F3073327
:100800000393009A1346DB009A1A059B92FBF3F3BD
:100810000733029303980021FFF7DAFD0648FFF73C
:1008200017FE02980121FFF7D3FD0348FFF710FEE2
:1008300009B05DF804FB00BF902E0020AFF30080EC
:100840002DE9B04388B000AFFFF7BAFCFFF720FEF8
:10085000FFF78EFEFFF77CFD012000210022FFF74D
:1008600087FDFFF775FD64233B6139694B1EFB6013
:100870000B461A464FF000034FEA831949EA926982
:100880004FEA82180B461A464FF000039D0145EAD5
:10089000926594010B46DB0003330733DB08DB0072
:1008A000ADEB030D6B4603339B089B00BB60292017
:1008B0000121FFF7A5FE78602B200121FFF7A0FEA4
:1008C000386007200021FFF783FD2E48FFF7C0FDA9
:1008D00007200121FFF77CFD2A48FFF7B9FD4FF4FF
:1008E0007A7000F08DFD00237B6115E02920012145
:1008F000FFF786FE0146BB687A6943F832102B2069
:100900000121FFF77DFE0246B9687B69DB000B44DD
:100910005A607B6901337B617A693B699A42E5DB06
:1009200000237B6115E0BB687A6953F832207B684D
:10093000D31AFA691344FB61BA687B69DB0013447C
:100940005A683B68D31ABA691344BB617B690133A7
:100950007B617A693B699A42E5DBFA693B6992FB04
:10096000F3F3FB61BA693B6992FBF3F3BB611420BB
:1009700000F046FDFFF7ECFCF869B969FFF710FFDE
:10098000B1E700BF902E0020AFF30080AFF30080EE
:10099000704700BFAFF30080AFF30080AFF300807B
:1009A000FEE700BFAFF30080AFF30080AFF300803D
:1009B00072B62E4C84F3098872B62D4C84F30888E5
:1009C0002C4B4FF040421A602B4B2B4A126842F4DA
:1009D00070021A600024E1EE104A284B1C600624C5
:1009E00084F31488BFF36F8F254C214D04E0234618
:1009F0001C1D4FF055321A60AC42F8D3214C1B4DF0
:100A000004E023461C1D4FF055321A60AC42F8D367
:100A100002F026FA1C4D1D4C05E023461C1D2A46FB
:100A2000151D12681A601A4B9C42F6D3194C1A4DC8
:100A300003E023461C1D00221A60AC42F9D3FFF7E5
:100A4000A7FF164C02E0236898470434144B9C42DD
:100A5000F9D3FFF7F5FE134C02E0236898470434FE
:100A6000114B9C42F9D3FFF79BFF00BF0008012008
:100A70000004012034EF00E088ED00E03CEF00E0EE
:100A80000000012000040120D030002000080120D7
:100A90000008012000080120FC0B01208801002033
:100AA000880100208801002088010020AFF3008029
:100AB000FEE700BFAFF30080AFF30080AFF300802C
:100AC00008B5202383F3118800F07AF9002383F31B
:100AD000118800F045F808BDAFF30080AFF3008047
:100AE00082B0EFF309830193019B68330193084BB4
:100AF000019A526E5A60064B054A926868329A60B3
:100B0000019B83F30988002383F3118802B07047A7
:100B100030EF00E0AFF30080AFF30080AFF3008070
:100B200008B50A4B4FF000529A60084B084ADA6049
:100B30000720102100F0D4F80A20202100F0D0F87E
:100B40000B20802100F0CCF808BD00BF00ED00E0D4
:100B50000003FA05AFF30080AFF30080AFF300802D
:100B600082B0202383F31188254B5B6803F4006374
:100B7000002B40D0EFF309830193019B683B019365
:100B8000019B83F30988019B4FF08072DA611D4B52
:100B90009B69DB7F002B0BD01A4B1B689A68194BA3
:100BA0009B699B689A4294BF00230123DBB20AE051
:100BB000144B1B689A68134B9B699B689A4234BF1D
:100BC00000230123DBB2002B05D0019B0E4A9A6162
:100BD000F1EE10FA02E0019B0C4A9A61019B683326
:100BE0000B4A52680092009A5A66094B009A42F0EA
:100BF00001025A6002E0002383F3118802B07047BB
:100C000000ED00E094090120210C0020240C0020BC
:100C100030EF00E0AFF30080AFF30080AFF300806F
:100C200000F02EFB00DF00BFAFF30080AFF30080C9
:100C300003460A462DE9F04F2DED108AC2F80CD07C
:100C4000D3F80CD0BDEC108ABDE8F08FAFF3008074
:100C5000002383F311882846A04700F0E1FB70478A
:100C600010B485B001900091019B03F00303DB00F9
:100C70000393194B019A9208174901988008C030D4
:100C800051F820000399FF2404FA01F1C9430840F8
:100C90000399009C04FA01F10143C03243F8221089
:100CA0000D4B019A5209019901F01F01012000FA30
:100CB00001F1603243F82210074B019A5209019961
:100CC00001F01F01012000FA01F143F8221005B0E4
:100CD0005DF8044B704700BF00E100E0AFF3008017
:100CE00010B485B001900091019B03F00303DB0079
:100CF00003930D4B019A92080B4901988008063026
:100D000051F820000399FF2404FA01F1C943084077
:100D10000399009C04FA01F10143063243F82210C2
:100D200005B05DF8044B704700ED00E0AFF30080C4
:100D300082B00190024B9B69024A9A61FEE700BFB4
:100D400094090120A02E0020AFF30080AFF30080B3
:100D500000B583B0FFF7E4FE00F02AF900F078F860
:100D600000F076FE00F0CCFE0F48402100F0A8FA1B
:100D700002460E4B9A610D4B9B6901221A770023A4
:100D800083F3118862B6094B9B69094A9A61002373
:100D9000009308484FF4A0710122074B00F010FBAC
:100DA00003B05DF804FB00BF400901209409012055
:100DB000D02E002000080120310D0020AFF300806C
:100DC00000B583B01E4B9B69DB7F002B05D01C4B0D
:100DD0009B69DA7F013AD2B2DA771A4BDB685A1C88
:100DE000184BDA60174B1A68164B9A4225D0154BF0
:100DF0001B689A68013A9A6018E0019BDB680093CF
:100E0000019B0022DA60019B1B680E4A5A60019B1D
:100E10001A680C4B1A60002383F31188019B1A692E
:100E2000009B10469847202383F31188054B1B68CD
:100E30000193019B9B68002BDFD003B05DF804FB9E
:100E40009409012084090120AFF30080AFF30080F2
:100E5000074B074A5A60064B5A68054B1A60044B09
:100E60004FF0FF329A60024B0022DA60704700BFF9
:100E700084090120AFF30080AFF30080AFF300805E
:100E800086B00390029101920093039B002B06D041
:100E9000019B002B03D0029B002B00D000BF039BC3
:100EA000009A1A61039B019ADA60184B1B6805933C
:100EB00007E0059B9B68029AD31A0293059B1B6867
:100EC0000593059B9A68029B9A42F2D3039B059A6D
:100ED0001A60039B1B685A68039B5A60039B5B68FC
:100EE000059A03995160059A52681A60039B029A09
:100EF0009A60059A054B9A4205D0059B9A68029B19
:100F0000D21A059B9A6006B0704700BF8409012081
:100F100082B00190019B1A680D4B9A4208D0019B48
:100F20001B68019A12689168019A92680A449A6053
:100F3000019B5B68019A12681A60019B1B68019A09
:100F400052685A60019B0022DA6002B0704700BF0D
:100F500084090120AFF30080AFF30080AFF300807D
:100F600084B00190019B1B680393039B1A68019B4B
:100F70001A60019B1B68019A5A60039B184604B0D3
:100F8000704700BFAFF30080AFF30080AFF3008085
:100F900082B00190019B5B68019A12681A60019B04
:100FA0001B68019A52685A60019B184602B070474C
:100FB000084B084A5A60074B5A68064B1A60054BA3
:100FC00000229A60034B034A5A61024B5A69014B53
:100FD0001A61704794090120AFF30080AFF30080DD
:100FE00084B00190019B1B7F002B04D0019B1B7FD1
:100FF0000E2B00D000BF019B00221A770E4B0393EB
:10100000039B1B680393039B9A68019B9B689A420E
:10101000F6D2019B039A1A60039B5A68019B5A609F
:10102000019B5B68039A01995160039A52681A60A8
:10103000019B184604B0704794090120AFF300806B
:1010400000B585B003468DF807300E4B9B690393BE
:10105000039B9DF807201A77039B1422DA7709482F
:10106000FFF77EFF0246074B9A61064B9B69012200
:101070001A77044B9B6918460399FFF7D9FD05B011
:101080005DF804FB94090120AFF30080AFF300800A
:1010900000B585B00190019B0393202383F3118851
:1010A000039B1B7F0D2B2BD801A252F823F000BF0E
:1010B000E91000200111002001110020F110002092
:1010C00001110020FB10002001110020011100205F
:1010D0000111002001110020011100200111002048
:1010E00001110020FB100020002383F3118811E080
:1010F000039B1B6A9A6801329A600398FFF748FFC6
:10110000039B4FF0FF321A620398FFF769FF002339
:1011100083F3118805B05DF804FB00BFAFF30080D6
:1011200000B589B0034600918DF80730009BB3F1FC
:10113000FF3F15D0104B9B6903AA104600990F4A38
:10114000FFF79EFE9DF807301846FFF779FF069BD4
:10115000002B04D003AB1846FFF7DAFE05E004E0ED
:101160009DF807301846FFF76BFF034B9B691B6A1E
:10117000184609B05DF804FB940901209110002085
:1011800000B585B001900091019B009A1A62019B05
:101190009A680E4B9B699B689A4203D80198FFF7A7
:1011A0001FFF0FE0094B9B691846FFF719FF0390DB
:1011B000064B019A9A61019B01221A7701980399C3
:1011C000FFF736FD05B05DF804FB00BF9409012070
:1011D00000B583B00D4B9B6901930C48FFF7C0FE2F
:1011E00002460A4B9A61094B9B6901221A77019BBF
:1011F0001422DA770198FFF7F3FE044B9B69184637
:101200000199FFF715FD03B05DF804FB9409012077
:1012100000B583B0194B9B6900931848FFF7A0FEF7
:101220000246164B9A61154B9B6901221A77009B67
:1012300000221A77114B0193019B1B680193019BBC
:101240009A68009B9B689A42F6D8009B019A1A60A4
:10125000019B5A68009B5A60009B5B68019A009949
:101260005160019A52681A60044B9B6918460099B4
:10127000FFF7DEFC03B05DF804FB00BF940901201A
:1012800008B5054B9B69DB7F002B02D1FFF7A0FF60
:1012900001E0FFF7BDFF08BD94090120AFF3008016
:1012A00084B00190019B1B680393039B1A68019B08
:1012B0001A60039B184604B0704700BFAFF300806C
:1012C00082B001900091019B009A9A60019B0222DA
:1012D0001A77019B00225A77019B1422DA77019B2F
:1012E000009ADA63019B00229A63019B00225A63F1
:1012F000019B01229A77019B00229A61019B104A6F
:101300001A610F4B5A69019B5A61019B5B690C4A38
:10131000019951610A4A52691A61019B03F1240241
:10132000019B5A62019B03F12802019BDA62019B37
:10133000DA6A019B9A62019B184602B0704700BFAF
:1013400094090120AFF30080AFF30080AFF3008079
:1013500000B587B00390029101920093039B05931F
:10136000039B002B0AD0029BB3F5987F06D3019B09
:101370007F2B03D8009B002B00D000BF029B643B57
:10138000039A1A44059BDA60059BDB68009A1A648D
:10139000059BDB68089A5A64059BDB68054A1A6658
:1013A00005980199FFF78CFF0346184607B05DF8D2
:1013B00004FB00BF510C0020AFF30080AFF30080AE
:1013C00000B589B00590049103920293202383F322
:1013D00011880A9B009305980499039A029BFFF7D2
:1013E000B7FF079007980021FFF7CAFE002383F399
:1013F0001188079B184609B05DF804FBAFF3008025
:1014000000B583B00190202383F311880620019951
:10141000FFF786FE002383F3118803B05DF804FB19
:1014200000B583B00190202383F31188019800F068
:1014300007F803B05DF804FBAFF30080AFF3008062
:1014400000B585B00190164B9B690393039B019AED
:101450001A6208E0039B24331846FFF721FF034676
:101460001846FFF7BDFD039B5A6A039B24339A423B
:10147000F0D1039B5B7F03F00303002B09D1039B97
:101480005B69039A12691A61039B1B69039A52698B
:101490005A610E20FFF7D4FD05B05DF804FB00BFD4
:1014A00094090120AFF30080AFF30080AFF3008018
:1014B00082B00190019A019B5A60019B5A68019B7E
:1014C0001A60019B00229A6002B07047AFF300805F
:1014D00000B585B001900091019B1B68039310E05B
:1014E000039BDA68009B1A43039BDA60039B5A68EC
:1014F000039B9B681046194600F00AF8039B1B6883
:101500000393039A019B9A42EAD105B05DF804FB6C
:1015100000B583B001900091019B5A6B009B1A4368
:10152000019B5A63019B1B7F082B06D1019B5A6BC1
:10153000019B1B6A1340002B0CD1019B1B7F092BC5
:101540000ED1019B5A6B019B1B6A1A40019B1B6ABF
:101550009A4205D10198FFF743FD034600221A6223
:1015600003B05DF804FB00BFAFF30080AFF3008071
:1015700082B001900091019B009A1A60009B5A680A
:10158000019B5A60019B5B68009A01995160009A27
:1015900052681A6002B07047AFF30080AFF300806A
:1015A00084B00190019B1B680393039B1A68019B05
:1015B0001A60019B1B68019A5A60039B184604B08D
:1015C000704700BFAFF30080AFF30080AFF300803F
:1015D00000B583B001900091009B002B02D14FF029
:1015E000FF330FE0094B9B69019A1A62074B9A6916
:1015F000019B10461946FFF7BBFF0D200099FFF72E
:101600008FFD0346184603B05DF804FB94090120E2
:1016100084B00390029101920093039A039B5A6055
:10162000039B5A68039B1A60039B00229A60039BEA
:10163000029A5A61039B5A69039B9A61039B9A69B8
:10164000039BDA60029A019B1A44039B1A61039B75
:10165000009ADA61039B049A1A6204B0704700BFD3
:1016600000B583B001900B468DF80330019B5A6999
:10167000019B9B699A4205D1019B9B68002B01D07D
:10168000012300E0002303F00103DBB2002B02D0B2
:101690006FF0030327E0019B9B685A1C019B9A6033
:1016A000019B5B69591C019A51619DF803201A70D6
:1016B000019B5A69019B1B699A4203D3019BDA681B
:1016C000019B5A61019B1A68019B9A420AD0019BB7
:1016D0001846FFF765FF03461846FFF781FC0346EF
:1016E00000221A620023184603B05DF804FB00BF15
:1016F00000B585B001900091202383F31188019BF0
:10170000DB69002B04D0019BDB69019898470DE051
:101710000CE001980099FFF75BFF0390039B002BFF
:1017200004DA002383F31188039B1FE0019B9B686D
:10173000002BEED0019B9B685A1E019B9A60019B77
:101740009B69591C019A91611B788DF80B30019BA4
:101750009A69019B1B699A4203D3019BDA68019B3A
:101760009A61002383F311889DF80B30184605B069
:101770005DF804FBAFF30080AFF30080AFF30080AF
:1017800000B587B00390029101920093039BDB693F
:10179000049300230593202383F31188049B002BDB
:1017A00003D0049B039898470CE00BE00398009942
:1017B000FFF70EFF0346002B04D0002383F31188AC
:1017C000059B2EE0039B9B68002BEFD0039B9B683F
:1017D0005A1E039B9A60029B5A1C0292039A9269BA
:1017E000501C0399886112781A70039B9A69039BB5
:1017F0001B699A4203D3039BDA68039B9A61002317
:1018000083F31188059B01330593019B013B0193F1
:10181000019B002B01D1059B03E0202383F311885A
:10182000BCE7184607B05DF804FB00BFAFF30080CB
:1018300084B00390029101920093039A039B5A6033
:10184000039B5A68039B1A60039B019A9A60039B4F
:10185000029A5A61039B5A69039B9A61039B9A6996
:10186000039BDA60029A019B1A44039B1A61039B53
:10187000009ADA61039B049A1A6204B0704700BFB1
:1018800000B587B003900B4601928DF80B302023F2
:1018900083F311880CE003980199FFF799FE0590F6
:1018A000059B002B04DA002383F31188059B26E0B7
:1018B000039B9B68002BEED0039B9B685A1E039BE7
:1018C0009A60039B5B69591C039A51619DF80B2038
:1018D0001A70039B5A69039B1B699A4203D3039BAB
:1018E000DA68039B5A61039BDB69002B03D0039BDF
:1018F000DB6903989847002383F311880023184677
:1019000007B05DF804FB00BFAFF30080AFF30080C9
:1019100000B585B00190019B5A69019B9B699A4271
:1019200005D1019B9B68002B01D0012300E000231F
:1019300003F00103DBB2002B02D06FF0020328E0BA
:10194000019B9B685A1C019B9A60019B9B69591CD7
:10195000019A91611B788DF80F30019B9A69019B68
:101960001B699A4203D3019BDA68019B9A61019B30
:101970001A68019B9A420AD0019B1846FFF710FE95
:1019800003461846FFF72CFB034600221A629DF817
:101990000F30184605B05DF804FB00BFAFF30080C0
:1019A00000B587B00390029101920093039BDB691D
:1019B000049300230593202383F311880BE00398FD
:1019C0000099FFF705FE0346002B04D0002383F3A4
:1019D0001188059B35E0039B9B68002BEFD0039B90
:1019E0009B685A1E039B9A60039B5B69591C039A70
:1019F0005161029A511C029112781A70039B5A6924
:101A0000039B1B699A4203D3039BDA68039B5A61C9
:101A1000049B002B02D0049B03989847002383F378
:101A20001188059B01330593019B013B0193019BA9
:101A3000002B01D1059B04E0202383F3118800BF14
:101A4000C9E7184607B05DF804FB00BFAFF300809C
:101A5000064B073323F007031A46054B1A60054B64
:101A600023F007031A46044B1A607047FC0B012051
:101A7000B009012000C00120B4090120AFF30080AB
:101A800000B585B00190202383F31188019800F000
:101A90000FF80390002383F31188039B184605B0C9
:101AA0005DF804FBAFF30080AFF30080AFF300807C
:101AB00084B00190019B073323F0070301930C4B83
:101AC0001B681A460B4B1B68D31A1A46019B9A4295
:101AD00001D2002309E0074B1B680393054B1A68EA
:101AE000019B1A44034B1A60039B184604B07047CD
:101AF000B4090120B0090120AFF30080AFF30080EA
:101B000008B5064B064A1A60044B00229A60034B44
:101B10000022DA600348FFF7CBFC08BDB8090120BA
:101B2000811A0020C8090120AFF30080AFF30080C4
:101B300008B500F035FC084800F032FE00F010F85F
:101B400000F036F800F08CF800F052F900F0B0F92F
:101B500001F08EF908BD00BFD02F0020AFF3008048
:101B600008B500F095FD08BDAFF30080AFF300802D
:101B700000B583B00190019B01221A70019B0022E5
:101B80005A60019B00229A60019B0022DA60019B4F
:101B900000221A61019B00225A61019B18331846EA
:101BA000FFF786FC03B05DF804FB00BFAFF30080D5
:101BB00008B500F0DDFE08BDAFF30080AFF3008094
:101BC00082B00190019B01221A70019B00225A6091
:101BD00002B07047AFF30080AFF30080AFF3008036
:101BE00000B583B001900091019B002B03D0009BB6
:101BF000002B00D000BF202383F31188019B1B78AA
:101C0000012B03D0019B1B78022B00D100BF019B4D
:101C1000009A5A60019800F0C3FE019B02221A70DC
:101C2000002383F3118803B05DF804FBAFF3008059
:101C300000B583B001900091019B04221A700198B5
:101C4000009900F035FF019B02221A7003B05DF885
:101C500004FB00BFAFF30080AFF30080AFF3008060
:101C600008B500F0CDFF08BDAFF30080AFF30080F2
:101C700082B00190019B01221A70019B00225A60E0
:101C800002B07047AFF30080AFF30080AFF3008085
:101C900000B585B0039002910192039B3033184642
:101CA0000299019A4FF0FF33FFF77AFE0346184678
:101CB00005B05DF804FB00BFAFF30080AFF3008018
:101CC00000B585B0039002910192039B0C33184636
:101CD0000299019A4FF0FF33FFF752FD0346184671
:101CE00005B05DF804FB00BFAFF30080AFF30080E8
:101CF00000B583B001900B468DF80330019B03F1D2
:101D000030029DF80330104619464FF0FF32FFF7BE
:101D1000B7FD0346184603B05DF804FBAFF300803F
:101D200000B583B00190019B0C3318464FF0FF3192
:101D3000FFF7DEFC0346184603B05DF804FB00BF66
:101D400000B585B003900B4601928DF80B30039BD4
:101D500003F130029DF80B3010461946019AFFF747
:101D60008FFD0346184605B05DF804FBAFF3008015
:101D700000B583B001900091019B0C331846009987
:101D8000FFF7B6FC0346184603B05DF804FB00BF3E
:101D900000B585B00390029101920093039B30330C
:101DA00018460299019A009BFFF7FAFD0346184670
:101DB00005B05DF804FB00BFAFF30080AFF3008017
:101DC00000B585B00390029101920093039B0C3300
:101DD00018460299019A009BFFF7D2FC0346184669
:101DE00005B05DF804FB00BFAFF30080AFF30080E7
:101DF00008B501F025F808BDAFF30080AFF300800F
:101E000000B587B0059004910392059B124A1A60B1
:101E1000059B1A1D059B5A60059B01221A72059BA2
:101E200003F10C02059B54330599009110461946A5
:101E30001022049BFFF7ECFB059B03F13002059B8E
:101E4000643305990091104619461022039BFFF751
:101E5000EFFC07B05DF804FBF02E0020AFF300802C
:101E600000B583B001900B468DF80330019B5B6990
:101E7000002B05D1019B043318460421FFF728FBF2
:101E8000019B03F10C029DF8033010461946FFF741
:101E9000E7FB0346002B05DA019B0433184680213B
:101EA000FFF716FB03B05DF804FB00BFAFF3008043
:101EB00008B500F0D5FC08BDAFF30080AFF300809B
:101EC00000B583B00190019B01221A70019B002292
:101ED0005A60019B00229A60019B0C331846FFF761
:101EE000E7FA03B05DF804FBAFF30080AFF30080C6
:101EF00000B583B00B4B1B6803F03D030193094B06
:101F0000019A9A60084B1B68002B06D0064B1B6891
:101F1000054A5268104601999847FEF721FE03B022
:101F20005DF804FB00600240DC090120AFF3008093
:101F300000B583B00C4B1B689B0903F03D03019374
:101F4000094B019A92019A60084B9B68002B06D0BE
:101F5000064B9B68054AD268104601999847FEF7E0
:101F6000FFFD03B05DF804FB00600240DC090120C6
:101F700000B583B00C4B1B681B0C03F03D030193B1
:101F8000094B019A12049A60084B1B69002B06D07A
:101F9000064B1B69054A5269104601999847FEF79E
:101FA000DFFD03B05DF804FB00600240DC090120A6
:101FB00000B583B00C4B1B689B0D03F03D030193F0
:101FC000094B019A92059A60084B9B69002B06D039
:101FD000064B9B69054AD269104601999847FEF75E
:101FE000BFFD03B05DF804FB00600240DC09012086
:101FF00000B583B00B4B5B6803F03D030193094BC5
:10200000019ADA60084B1B6A002B06D0064B1B6A4C
:10201000054A526A104601999847FEF7A1FD03B0A0
:102020005DF804FB00600240DC090120AFF3008092
:1020300000B583B00C4B5B689B0903F03D03019333
:10204000094B019A9201DA60084B9B6A002B06D07B
:10205000064B9B6A054AD26A104601999847FEF7DB
:102060007FFD03B05DF804FB00600240DC09012045
:1020700000B583B00C4B5B681B0C03F03D03019370
:10208000094B019A1204DA60084B1B6B002B06D037
:10209000064B1B6B054A526B104601999847FEF799
:1020A0005FFD03B05DF804FB00600240DC09012025
:1020B00000B583B00C4B5B689B0D03F03D030193AF
:1020C000094B019A9205DA60084B9B6B002B06D0F6
:1020D000064B9B6B054AD26B104601999847FEF759
:1020E0003FFD03B05DF804FB00600240DC09012005
:1020F00000B583B00B4B1B6803F03D030193094B04
:10210000019A9A60084B1B6C002B06D0064B1B6C87
:10211000054A526C104601999847FEF721FD03B01D
:102120005DF804FB00640240DC090120AFF300808D
:1021300000B583B00C4B1B689B0903F03D03019372
:10214000094B019A92019A60084B9B6C002B06D0B8
:10215000064B9B6C054AD26C104601999847FEF7D6
:10216000FFFC03B05DF804FB00640240DC090120C1
:1021700000B583B00C4B1B681B0C03F03D030193AF
:10218000094B019A12049A60084B1B6D002B06D074
:10219000064B1B6D054A526D104601999847FEF794
:1021A000DFFC03B05DF804FB00640240DC090120A1
:1021B00000B583B00C4B1B689B0D03F03D030193EE
:1021C000094B019A92059A60084B9B6D002B06D033
:1021D000064B9B6D054AD26D104601999847FEF754
:1021E000BFFC03B05DF804FB00640240DC09012081
:1021F00000B583B00B4B5B6803F03D030193094BC3
:10220000019ADA60084B1B6E002B06D0064B1B6E42
:10221000054A526E104601999847FEF7A1FC03B09B
:102220005DF804FB00640240DC090120AFF300808C
:1022300000B583B00C4B5B689B0903F03D03019331
:10224000094B019A9201DA60084B9B6E002B06D075
:10225000064B9B6E054AD26E104601999847FEF7D1
:102260007FFC03B05DF804FB00640240DC09012040
:1022700000B583B00C4B5B681B0C03F03D0301936E
:10228000094B019A1204DA60084B1B6F002B06D031
:10229000064B1B6F054A526F104601999847FEF78F
:1022A0005FFC03B05DF804FB00640240DC09012020
:1022B00000B583B00C4B5B689B0D03F03D030193AD
:1022C000094B019A9205DA60084B9B6F002B06D0F0
:1022D000064B9B6F054AD26F104601999847FEF74F
:1022E0003FFC03B05DF804FB00640240DC09012000
:1022F00082B0164B00221A600023019311E01449AA
:10230000019A13465B0013449B000B441B68002298
:102310001A60104B019A002143F83210019B0133DF
:102320000193019B0F2BEADD0B4B4FF0FF329A60BC
:10233000094B4FF0FF32DA60084B4FF0FF329A60E2
:10234000064B4FF0FF32DA6002B07047D809012027
:10235000102F0020DC0901200060024000640240D0
:102360000D4B0D4A126842F480721A600B4B1B6FC2
:1023700003F44073B3F5007F06D0084B4FF480326E
:102380001A67064B00221A67034B034A526822F46D
:1023900000725A60704700BF007000400038024071
:1023A00008B5224B1B69214B4FF0FF321A611F4BBE
:1023B00000221A611D4B5B691C4B4FF0FF325A61C2
:1023C0001A4B00225A61194B184A126A62F0805265
:1023D0001A62164B00221A62144B5B6A134B4FF0C1
:1023E000FF325A62114B00225A62114B114A5A6055
:1023F0000F4B00229A600E4B07221A600E4B0E4ABA
:10240000D26842F08072DA600C4B0C4A126842F0DB
:1024100001021A60054B054A126C42F080521A64A0
:10242000FFF79EFFFFF764FF08BD00BF00380240C2
:1024300010E000E03F900200F0ED00E0001000E04E
:102440003B4B4FF080521A643A4B4FF440421A60B3
:10245000374B374A126842F001021A6000BF344B12
:102460001B6803F00203002BF9D0314B304A12688D
:1024700002F0F9021A602E4B00229A6000BF2C4B2A
:102480009B6803F00C03002BF9D1294B284A1268F2
:1024900042F480321A6000BF254B1B6803F40033FE
:1024A000002BF9D0224B224A526F42F001025A67A8
:1024B00000BF1F4B5B6F03F00203002BF9D01C4BD6
:1024C0001D4A5A601A4B1A4A126842F080721A600A
:1024D00000BF184B5B6803F48043002BF9D000BFAA
:1024E000134B1B6803F00073002BF9D0104B134AF9
:1024F0009A60134B40F205721A600D4B0C4A9268B9
:1025000042F002029A6000BF094B9B6803F00C0383
:10251000082BF9D1064B064A526C42F480425A64A9
:10252000034B034A526E42F480425A66704700BF22
:1025300000380240007000400854400700940838FA
:10254000003C0240AFF30080AFF30080AFF30080A7
:1025500000B585B0494B1B680393484B00221A60B5
:10256000039B03F02003002B3BD0454BDB6A1B6829
:102570005B68002B35D0424B1B69002B31D04048A3
:1025800000F0B6F83E4B1B699B68002B0FD03C4B0C
:1025900005221A703A4B1B699B68394801219847FC
:1025A000374B1B78052B02D1354B02221A70344B66
:1025B00000221A61202383F31188314B5B69002BC1
:1025C0000CD02F4B5B6902932D4B00225A61029B6A
:1025D0004FF0FF321A620298FEF702FD002383F3E8
:1025E0001188284B1B680393264B00221A60039B1B
:1025F00003F02003002B3BD0234BDB6A1B685B6896
:10260000002B35D0204B1B69002B31D01E4800F029
:102610006FF81D4B1B699B68002B0FD01A4B0522CE
:102620001A70194B1B699B68174801219847164B74
:102630001B78052B02D1144B02221A70124B002278
:102640001A61202383F311880F4B5B69002B0CD098
:102650000D4B5B6901930C4B00225A61019B4FF0BB
:10266000FF321A620198FEF7BBFC002383F3118846
:10267000FEF776FA05B05DF804FB00BF00200140CC
:102680005C0A012000210140900A0120AFF3008084
:1026900008B50E48FFF76CFA0C4B0D4A9A620B4BCB
:1026A0000C4ADA62094B0C4A1A630C48FFF760FACD
:1026B0000A4B0B4A9A62094B0A4ADA62074B0A4AEA
:1026C0001A6312206021FEF7CBFA08BD5C0A0120D4
:1026D00000200140A02F0020162C0200900A0120AB
:1026E00000210140882F0020162C0202AFF3008049
:1026F00082B00190019BDB6A1B68019AD26A126862
:10270000126822F01F021A6000BF019BDB6A1B687F
:102710001B6803F00103002BF7D1019BDB6A5B68A8
:10272000019AD26A127A3D2101FA02F21A60019BE3
:102730009B6A00225A60019B9B6A00229A60019B5F
:102740009B6A01229A6002B0704700BFAFF300801D
:1027500082B001900091009B5A68019B5A60009BD7
:102760009A68019B9A60009BDA68019BDA60009B83
:102770001A69019B5A61009B5A69019B1A62009B6E
:102780009A69019B5A62009B1A68019B1A6002B009
:10279000704700BFAFF30080AFF30080AFF300805D
:1027A00000B583B00190244A234B1B6B6FEA53237F
:1027B0006FEA43231363204A1F4B1B6D6FEA5323B9
:1027C0006FEA43231365019B1C481946FFF7C0FFBE
:1027D000019B1C331A481946FFF7BAFF019B383397
:1027E00018481946FFF7B4FF019B543316481946A1
:1027F000FFF7AEFF019B703314481946FFF7A8FF9F
:10280000019B8C3312481946FFF7A2FF019BA833A6
:1028100010481946FFF79CFF019BC4330E48194628
:10282000FFF796FF019BE0330C481946FFF790FF36
:1028300003B05DF804FB00BF003802400000024016
:102840000004024000080240000C02400010024058
:102850000014024000180240001C02400020024008
:1028600008B5144B4FF6FF721A801348FFF728FB88
:10287000114B124ADA61104B114A1A620E4B114A7F
:102880005A620D4B104A9A620B4B104ADA6210489A
:10289000FFF716FB0E4B0F4ADA610D4B0E4A1A6218
:1028A0000B4B0E4A5A620A4B0D4A9A62084B0D4A6C
:1028B000DA6208BD240B0120C40A01200030014067
:1028C000702F0020942F00201600010646000106FC
:1028D000F40A012000380040342F0020402F00204F
:1028E0001600010046000100AFF30080AFF3008046
:1028F00000B583B00190019BDB6800221A61019B47
:102900001B78042B05D1019B02221A70019800F05C
:10291000B7F8019B5B685B680198984703B05DF866
:1029200004FB00BFAFF30080AFF30080AFF3008083
:1029300008B50348FFF7DCFFFEF712F908BD00BF3A
:10294000280B0120AFF30080AFF30080AFF30080CD
:1029500008B50348FFF7CCFFFEF702F908BD00BF3A
:10296000380B0120AFF30080AFF30080AFF300809D
:1029700008B5064B064ADA600448FFF721F9054B13
:10298000054ADA600348FFF71BF908BD280B012050
:10299000000C0040380B012000400140AFF30080E4
:1029A00000B585B00190019B1B78012B33D1019AB2
:1029B0002C4B9A4215D12C4B2B4A126C42F0080238
:1029C0001A64294B284A126A42F008021A62264BFE
:1029D00000221A6232207021FEF742F9019B234A3D
:1029E0009A60019A224B9A4215D11F4B1E4A526C93
:1029F00042F480325A641C4B1B4A526A42F48032C1
:102A00005A62194B00225A6218207021FEF728F9E9
:102A1000019B184A9A60019B9A68019B5B681B683E
:102A2000B2FBF3F39BB2013BADF80E30019BDB68C8
:102A300000221A60019BDB6808225A60019BDB6858
:102A4000BDF80E209A62019BDB68019A5268926879
:102A5000D2B2DA60019BDB6800221A6105B05DF832
:102A600004FB00BF280B01200038024000BD010517
:102A7000380B0120007A030AAFF30080AFF3008027
:102A800082B00190019BDB6800221A60019BDB6829
:102A900000221A61019BDB68019AD268D26822F099
:102AA000FF02DA6002B07047AFF30080AFF300803E
:102AB00082B001900091019BDB68009A013ADA62D2
:102AC000019BDB6801225A61019BDB6800221A61CD
:102AD000019BDB680D221A6000BF019BDB681B694C
:102AE00003F00103002BF8D002B07047AFF3008071
:102AF00000B585B00190019B1B691B69ADF80E30D4
:102B0000019B1B69DB689AB2BDF80E3013409BB283
:102B1000DBB2ADF80E30019B1B69BDF80E20D2432D
:102B20001A61BDF80E3003F00203002B04D0019BA4
:102B30005B681B6901989847BDF80E3003F00403E9
:102B4000002B04D0019B5B689B6901989847BDF8F6
:102B50000E3003F00803002B04D0019B5B681B6A56
:102B600001989847BDF80E3003F01003002B04D0F5
:102B7000019B5B689B6A01989847BDF80E3003F093
:102B80000103002B04D0019B5B689B680198984768
:102B900005B05DF804FB00BFAFF30080AFF3008029
:102BA00008B50348FFF7A4FFFDF7DAFF08BD00BF33
:102BB000480B0120AFF30080AFF30080AFF300803B
:102BC00008B50348FFF794FFFDF7CAFF08BD00BF33
:102BD0005C0B0120AFF30080AFF30080AFF3008007
:102BE00008B50348FFF784FFFDF7BAFF08BD00BF33
:102BF000700B0120AFF30080AFF30080AFF30080D3
:102C000008B50A48FFF734F8084B4FF080421A61C4
:102C10000748FFF72DF8064B064A1A610648FFF7EA
:102C200027F8054B054A1A6108BD00BF480B012073
:102C30005C0B012000040040700B012000080040E4
:102C400000B585B001900B46ADF802300023039328
:102C5000BDF8023003F00803002B03D0039B43F0C0
:102C600080030393BDF8023003F00103002B03D06F
:102C7000039B43F020030393BDF8023003F00203EB
:102C8000002B03D0039B43F040030393BDF80230B5
:102C900003F00403002B03D0039B43F480730393DE
:102CA000019B043318460399FEF712FC05B05DF84A
:102CB00004FB00BFAFF30080AFF30080AFF30080F0
:102CC00000B587B00190019B5B6F0493049B9B89C7
:102CD000ADF80E30049B1B88ADF81630BDF81630E9
:102CE00003F48073002B10D0202383F31188019B01
:102CF000043318464FF40071FEF7EAFB002383F318
:102D00001188049B4FF6FF621A80202383F31188F9
:102D100017E0BDF8163003F00F03002B05D0BDF807
:102D2000163001981946FFF78BFF049B9B889BB2D6
:102D3000DBB201981946FFF793F8049B1B88ADF8A6
:102D40001630BDF8163003F02003002BE1D100232C
:102D500083F31188BDF80E3003F08003002B2AD0D6
:102D6000BDF8163003F08003002B24D0202383F31A
:102D70001188019B30331846FEF7CAFD0290029B72
:102D8000002B11DA019B043318460821FEF7A0FB43
:102D9000BDF80E3023F0C0039BB243F040039BB25A
:102DA0009AB2049B9A8103E0029B9AB2049B9A8098
:102DB000002383F31188BDF8163003F04003002B85
:102DC00016D0202383F31188019B04331846102169
:102DD000FEF77EFB002383F31188BDF80E3023F04D
:102DE000C0039AB2049B9A81049B4FF6BF721A806B
:102DF00007B05DF804FB00BFAFF30080AFF30080C5
:102E000082B00190044B044A928992B242F080024F
:102E100092B29A8102B0704700440040AFF3008044
:102E200008B50348FFF74CFFFDF79AFE08BD00BF49
:102E3000840B0120AFF30080AFF30080AFF300807C
:102E400008B504480021044AFEF7DAFF014B034AA3
:102E50005A6708BD840B0120012E00200044004069
:102E600008B5FFF7EDFA08BDAFF30080AFF30080BF
:102E7000704700BFAFF30080AFF30080AFF3008076
:102E8000090A0B0C0D0E0F000000000000000000EE
:102E90002A00000000000000000000000000000008
:102EA00069646C6500000000000000000000000084
:102EB00040420F0000000000000000000000000081
:102EC00040420F0000000000000000000000000071
:102ED0006D61696E00168211040444080C10141808
:102EE000001C1D1E1F00000000000000000000006C
:102EF000911C0020C11C0020F11C0020211D00207D
:102F0000411D0020711D0020911D0020C11D0020C9
:102F1000106002400860024000000B002860024080
:102F20000860024006010C00406002400860024058
:102F300010020D00586002400860024016030E00A7
:102F4000706002400C60024000040F008860024084
:102F50000C60024006051000A06002400C600240B8
:102F600010061100B86002400C60024016072F00E6
:102F700010640240086402400008380028640240DF
:102F800008640240060939004064024008640240B7
:102F9000100A3A005864024008640240160B3B00D5
:102FA000706402400C640240000C3C0088640240E3
:102FB0000C640240060D4400A06402400C64024010
:102FC000100E4500B86402400C640240160F460023
:102FD00000AAA02A00000000FFABFFFF5400014040
:102FE000FFFF00000000565500AA0A0080200800DC
:102FF00040020000FFFFFFFF15455155FFFF000095
:1030000000000004400000000180200200000000D9
:10301000FFFFFFFF54154554FFFF00000000006054
:10302000000606000001005500000000FFFFFFFF42
:1030300055505500FF0F0000000000000000000088
:103040004000000000000000FFFFFFFF0000000044
:10305000FFFF000000000000000000000000000072
:1030600000000000FFFFFFFF00000000FFFF000066
:103070000000000000000000000000000000000050
:10308000FFFFFFFF00000000FFFF00000000000046
:10309000000000000000000000000000FFFFFFFF34
:1030A00000000000FFFF0000000000000000000022
:1030B0000000000000000000FFFFFFFF0000000014
:0C30C000FFFF0000000000000000000006
:04000005200009B11D
:00000001FF
